:060000000A128A112028FB
:100008008B1C0900051C09280D288B10FF30870060
:0A00180009008B100030870009007A
:100040000317831609128B01D0308B00031383161C
:1000500075308F0003138312860103138316FF305C
:10006000860003178316091203138316FF309500C9
:100070000313831287010313831687010317831663
:100080000030880003138312850103138316850152
:10009000031383124E20013085064828FF30A1004B
:0E00A000FF30A000A00B5228A10B5028080032
:04400E00C400FF3FAC
:00000001FF
