:1006FC000A128A11DA2B031383123F3086000A1276
:10070C008A11080003138312063086000A128A111C
:10071C000800031383125B3086000A128A1108004A
:10072C00031383124F3086000A128A110800031338
:10073C008312663086000A128A1108000313831292
:10074C006D3086000A128A110800031383127D3063
:10075C0086000A128A1108000313831207308600E0
:10076C000A128A110800031383127F3086000A12C2
:10077C008A110800031383126F3086000A128A1143
:10078C000800FF30A2000A128A11A20BCB2B080022
:10079C00FF30A100C723A10BD02B08000830A0000C
:1007AC00CE23A00BD62B08000310831203130317C0
:1007BC0083168901031383160030860003138312FA
:1007CC0086010313831670308F008123D423882372
:1007DC00D4238F23D4239623D4239D23D423A4233F
:1007EC00D423AB23D423B223D423B923D423C023BF
:0407FC00D423EB2BEC
:04400E00C418FF3F94
:00000001FF
