:02000000802856
:10000800031383120B1C09008801861C0C280F2877
:10001800861F090013280B100810861009000B1002
:0600280008148613090014
:1001000003138316C03081000313831682309500D9
:100110008B01C8308B0003138316823096000313C3
:10012000831670308F000317831600308900031781
:1001300083160030880003138316823086008801FE
:1001400000308500031383128601003088000313FA
:10015000831200308500081CB328AE280514CA207D
:100160000510CA20AB28081CB628AE280514C420E8
:100170000510C420AB28FF30A100FF30A000A00B69
:10018000BF28A10BBD2808000530A400BB20A40B8C
:10019000C6280800FF30A100FF30A000A00BCE2829
:0601A000A10BCC280800B1
:04400E00F50FFF3F6C
:00000001FF
